{
  "contractName": "PlazaCrowdsale",
  "abi": [
    {
      "constant": false,
      "inputs": [
        {
          "name": "_accounts",
          "type": "address[]"
        },
        {
          "name": "_phase",
          "type": "uint8"
        }
      ],
      "name": "updateWhitelistAddresses",
      "outputs": [],
      "payable": false,
      "stateMutability": "nonpayable",
      "type": "function"
    },
    {
      "constant": true,
      "inputs": [],
      "name": "hasClosed",
      "outputs": [
        {
          "name": "",
          "type": "bool"
        }
      ],
      "payable": false,
      "stateMutability": "view",
      "type": "function"
    },
    {
      "constant": true,
      "inputs": [
        {
          "name": "_account",
          "type": "address"
        }
      ],
      "name": "getContribution",
      "outputs": [
        {
          "name": "",
          "type": "uint256"
        }
      ],
      "payable": false,
      "stateMutability": "view",
      "type": "function"
    },
    {
      "constant": true,
      "inputs": [],
      "name": "rate",
      "outputs": [
        {
          "name": "",
          "type": "uint256"
        }
      ],
      "payable": false,
      "stateMutability": "view",
      "type": "function"
    },
    {
      "constant": true,
      "inputs": [],
      "name": "cap",
      "outputs": [
        {
          "name": "",
          "type": "uint256"
        }
      ],
      "payable": false,
      "stateMutability": "view",
      "type": "function"
    },
    {
      "constant": true,
      "inputs": [
        {
          "name": "account",
          "type": "address"
        }
      ],
      "name": "isCapper",
      "outputs": [
        {
          "name": "",
          "type": "bool"
        }
      ],
      "payable": false,
      "stateMutability": "view",
      "type": "function"
    },
    {
      "constant": true,
      "inputs": [
        {
          "name": "_account",
          "type": "address"
        }
      ],
      "name": "isWhitelisted",
      "outputs": [
        {
          "name": "",
          "type": "bool"
        }
      ],
      "payable": false,
      "stateMutability": "view",
      "type": "function"
    },
    {
      "constant": true,
      "inputs": [],
      "name": "weiRaised",
      "outputs": [
        {
          "name": "",
          "type": "uint256"
        }
      ],
      "payable": false,
      "stateMutability": "view",
      "type": "function"
    },
    {
      "constant": true,
      "inputs": [],
      "name": "isOpen",
      "outputs": [
        {
          "name": "",
          "type": "bool"
        }
      ],
      "payable": false,
      "stateMutability": "view",
      "type": "function"
    },
    {
      "constant": true,
      "inputs": [],
      "name": "closingTime",
      "outputs": [
        {
          "name": "",
          "type": "uint256"
        }
      ],
      "payable": false,
      "stateMutability": "view",
      "type": "function"
    },
    {
      "constant": false,
      "inputs": [],
      "name": "finalize",
      "outputs": [],
      "payable": false,
      "stateMutability": "nonpayable",
      "type": "function"
    },
    {
      "constant": false,
      "inputs": [
        {
          "name": "_account",
          "type": "address"
        },
        {
          "name": "_phase",
          "type": "uint8"
        }
      ],
      "name": "updateWhitelist",
      "outputs": [
        {
          "name": "",
          "type": "bool"
        }
      ],
      "payable": false,
      "stateMutability": "nonpayable",
      "type": "function"
    },
    {
      "constant": true,
      "inputs": [],
      "name": "capReached",
      "outputs": [
        {
          "name": "",
          "type": "bool"
        }
      ],
      "payable": false,
      "stateMutability": "view",
      "type": "function"
    },
    {
      "constant": true,
      "inputs": [],
      "name": "wallet",
      "outputs": [
        {
          "name": "",
          "type": "address"
        }
      ],
      "payable": false,
      "stateMutability": "view",
      "type": "function"
    },
    {
      "constant": true,
      "inputs": [],
      "name": "bonusRate",
      "outputs": [
        {
          "name": "",
          "type": "uint256"
        }
      ],
      "payable": false,
      "stateMutability": "view",
      "type": "function"
    },
    {
      "constant": false,
      "inputs": [],
      "name": "renounceCapper",
      "outputs": [],
      "payable": false,
      "stateMutability": "nonpayable",
      "type": "function"
    },
    {
      "constant": false,
      "inputs": [
        {
          "name": "account",
          "type": "address"
        }
      ],
      "name": "addCapper",
      "outputs": [],
      "payable": false,
      "stateMutability": "nonpayable",
      "type": "function"
    },
    {
      "constant": true,
      "inputs": [],
      "name": "finalized",
      "outputs": [
        {
          "name": "",
          "type": "bool"
        }
      ],
      "payable": false,
      "stateMutability": "view",
      "type": "function"
    },
    {
      "constant": true,
      "inputs": [],
      "name": "openingTime",
      "outputs": [
        {
          "name": "",
          "type": "uint256"
        }
      ],
      "payable": false,
      "stateMutability": "view",
      "type": "function"
    },
    {
      "constant": true,
      "inputs": [
        {
          "name": "tier",
          "type": "uint256"
        }
      ],
      "name": "tierStartTime",
      "outputs": [
        {
          "name": "",
          "type": "uint256"
        }
      ],
      "payable": false,
      "stateMutability": "view",
      "type": "function"
    },
    {
      "constant": false,
      "inputs": [
        {
          "name": "beneficiary",
          "type": "address"
        }
      ],
      "name": "buyTokens",
      "outputs": [],
      "payable": true,
      "stateMutability": "payable",
      "type": "function"
    },
    {
      "constant": true,
      "inputs": [],
      "name": "token",
      "outputs": [
        {
          "name": "",
          "type": "address"
        }
      ],
      "payable": false,
      "stateMutability": "view",
      "type": "function"
    },
    {
      "inputs": [
        {
          "name": "openingTime",
          "type": "uint256"
        },
        {
          "name": "closingTime",
          "type": "uint256"
        },
        {
          "name": "rate",
          "type": "uint256"
        },
        {
          "name": "wallet",
          "type": "address"
        },
        {
          "name": "cap",
          "type": "uint256"
        },
        {
          "name": "token",
          "type": "address"
        },
        {
          "name": "openingTimeTier4",
          "type": "uint256"
        },
        {
          "name": "openingTimeTier3",
          "type": "uint256"
        },
        {
          "name": "openingTimeTier2",
          "type": "uint256"
        },
        {
          "name": "invCap",
          "type": "uint256"
        }
      ],
      "payable": false,
      "stateMutability": "nonpayable",
      "type": "constructor"
    },
    {
      "payable": true,
      "stateMutability": "payable",
      "type": "fallback"
    },
    {
      "anonymous": false,
      "inputs": [
        {
          "indexed": true,
          "name": "_account",
          "type": "address"
        },
        {
          "indexed": false,
          "name": "_phase",
          "type": "uint8"
        }
      ],
      "name": "WhitelistUpdated",
      "type": "event"
    },
    {
      "anonymous": false,
      "inputs": [
        {
          "indexed": true,
          "name": "account",
          "type": "address"
        }
      ],
      "name": "CapperAdded",
      "type": "event"
    },
    {
      "anonymous": false,
      "inputs": [
        {
          "indexed": true,
          "name": "account",
          "type": "address"
        }
      ],
      "name": "CapperRemoved",
      "type": "event"
    },
    {
      "anonymous": false,
      "inputs": [],
      "name": "CrowdsaleFinalized",
      "type": "event"
    },
    {
      "anonymous": false,
      "inputs": [
        {
          "indexed": true,
          "name": "purchaser",
          "type": "address"
        },
        {
          "indexed": true,
          "name": "beneficiary",
          "type": "address"
        },
        {
          "indexed": false,
          "name": "value",
          "type": "uint256"
        },
        {
          "indexed": false,
          "name": "amount",
          "type": "uint256"
        }
      ],
      "name": "TokensPurchased",
      "type": "event"
    }
  ],
  "bytecode": "0x60806040526000600760006101000a81548160ff0219169083151502179055503480156200002c57600080fd5b5060405161014080620015e48339810180604052810190808051906020019092919080519060200190929190805190602001909291908051906020019092919080519060200190929190805190602001909291908051906020019092919080519060200190929190805190602001909291908051906020019092919050505087828486848e8e8c8f8f8e600083111515620000c657600080fd5b600073ffffffffffffffffffffffffffffffffffffffff168273ffffffffffffffffffffffffffffffffffffffff16141515156200010357600080fd5b600073ffffffffffffffffffffffffffffffffffffffff168173ffffffffffffffffffffffffffffffffffffffff16141515156200014057600080fd5b8260028190555081600160006101000a81548173ffffffffffffffffffffffffffffffffffffffff021916908373ffffffffffffffffffffffffffffffffffffffff160217905550806000806101000a81548173ffffffffffffffffffffffffffffffffffffffff021916908373ffffffffffffffffffffffffffffffffffffffff160217905550505050600081111515620001db57600080fd5b8060048190555050428210151515620001f357600080fd5b8181101515156200020357600080fd5b8160058190555080600681905550505062000237336008620002be6401000000000262000fd6179091906401000000009004565b6000811115156200024757600080fd5b80600981905550506000841115156200025f57600080fd5b42831115156200026e57600080fd5b8282101515156200027e57600080fd5b8181101515156200028e57600080fd5b83600c8190555080600f8190555081600e8190555082600d81905550505050505050505050505050505062000359565b600073ffffffffffffffffffffffffffffffffffffffff168173ffffffffffffffffffffffffffffffffffffffff1614151515620002fb57600080fd5b60018260000160008373ffffffffffffffffffffffffffffffffffffffff1673ffffffffffffffffffffffffffffffffffffffff16815260200190815260200160002060006101000a81548160ff0219169083151502179055505050565b61127b80620003696000396000f300608060405260043610610128576000357c0100000000000000000000000000000000000000000000000000000000900463ffffffff16806305917e8d146101335780631515bc2b1461017b57806321eff7fc146101aa5780632c4e722e14610201578063355274ea1461022c57806339564561146102575780633af32abf146102b25780634042b66f1461030d57806347535d7b146103385780634b6753bc146103675780634bb278f3146103925780634d399cb3146103a95780634f93594514610411578063521eb273146104405780635af123f4146104975780635d5576f8146104c25780638dfbcf36146104d9578063b3f05b971461051c578063b7a8807c1461054b578063bef7c25814610576578063ec8ac4d8146105b7578063fc0c546a146105ed575b61013133610644565b005b34801561013f57600080fd5b50610179600480360381019080803590602001908201803590602001919091929391929390803560ff169060200190929190505050610712565b005b34801561018757600080fd5b506101906107e5565b604051808215151515815260200191505060405180910390f35b3480156101b657600080fd5b506101eb600480360381019080803573ffffffffffffffffffffffffffffffffffffffff1690602001909291905050506107f1565b6040518082815260200191505060405180910390f35b34801561020d57600080fd5b5061021661083a565b6040518082815260200191505060405180910390f35b34801561023857600080fd5b50610241610844565b6040518082815260200191505060405180910390f35b34801561026357600080fd5b50610298600480360381019080803573ffffffffffffffffffffffffffffffffffffffff16906020019092919050505061084e565b604051808215151515815260200191505060405180910390f35b3480156102be57600080fd5b506102f3600480360381019080803573ffffffffffffffffffffffffffffffffffffffff16906020019092919050505061086b565b604051808215151515815260200191505060405180910390f35b34801561031957600080fd5b506103226108b7565b6040518082815260200191505060405180910390f35b34801561034457600080fd5b5061034d6108c1565b604051808215151515815260200191505060405180910390f35b34801561037357600080fd5b5061037c6108dc565b6040518082815260200191505060405180910390f35b34801561039e57600080fd5b506103a76108e6565b005b3480156103b557600080fd5b506103f7600480360381019080803573ffffffffffffffffffffffffffffffffffffffff169060200190929190803560ff169060200190929190505050610966565b604051808215151515815260200191505060405180910390f35b34801561041d57600080fd5b506104266109cc565b604051808215151515815260200191505060405180910390f35b34801561044c57600080fd5b506104556109e0565b604051808273ffffffffffffffffffffffffffffffffffffffff1673ffffffffffffffffffffffffffffffffffffffff16815260200191505060405180910390f35b3480156104a357600080fd5b506104ac610a0a565b6040518082815260200191505060405180910390f35b3480156104ce57600080fd5b506104d7610a19565b005b3480156104e557600080fd5b5061051a600480360381019080803573ffffffffffffffffffffffffffffffffffffffff169060200190929190505050610a2f565b005b34801561052857600080fd5b50610531610a9d565b604051808215151515815260200191505060405180910390f35b34801561055757600080fd5b50610560610ab4565b6040518082815260200191505060405180910390f35b34801561058257600080fd5b506105a160048036038101908080359060200190929190505050610abe565b6040518082815260200191505060405180910390f35b6105eb600480360381019080803573ffffffffffffffffffffffffffffffffffffffff169060200190929190505050610644565b005b3480156105f957600080fd5b50610602610b03565b604051808273ffffffffffffffffffffffffffffffffffffffff1673ffffffffffffffffffffffffffffffffffffffff16815260200191505060405180910390f35b6000803491506106548383610b2c565b61065d82610bd9565b905061067482600354610bfc90919063ffffffff16565b6003819055506106848382610c1d565b8273ffffffffffffffffffffffffffffffffffffffff163373ffffffffffffffffffffffffffffffffffffffff167f6faf93231a456e552dbc9961f58d9713ee4f2e69d15f1975b050ef0911053a7b8484604051808381526020018281526020019250505060405180910390a36106fb8383610c2b565b610703610cce565b61070d8383610d39565b505050565b600061071d3361084e565b151561072857600080fd5b600090505b838390508110156107df57600073ffffffffffffffffffffffffffffffffffffffff16848483818110151561075e57fe5b9050602002013573ffffffffffffffffffffffffffffffffffffffff1673ffffffffffffffffffffffffffffffffffffffff161415151561079e57600080fd5b6107d284848381811015156107af57fe5b9050602002013573ffffffffffffffffffffffffffffffffffffffff1683610d3d565b808060010191505061072d565b50505050565b60006006544211905090565b6000600a60008373ffffffffffffffffffffffffffffffffffffffff1673ffffffffffffffffffffffffffffffffffffffff168152602001908152602001600020549050919050565b6000600254905090565b6000600454905090565b6000610864826008610e3290919063ffffffff16565b9050919050565b600080600b60008473ffffffffffffffffffffffffffffffffffffffff1673ffffffffffffffffffffffffffffffffffffffff1681526020019081526020016000205414159050919050565b6000600354905090565b600060055442101580156108d757506006544211155b905090565b6000600654905090565b600760009054906101000a900460ff1615151561090257600080fd5b61090a6107e5565b151561091557600080fd5b61091d610ec6565b7f9270cc390c096600a1c17c44345a1ba689fafd99d97487b10cfccf86cf73183660405160405180910390a16001600760006101000a81548160ff021916908315150217905550565b60006109713361084e565b151561097c57600080fd5b600073ffffffffffffffffffffffffffffffffffffffff168373ffffffffffffffffffffffffffffffffffffffff16141515156109b857600080fd5b6109c28383610d3d565b6001905092915050565b60006004546109d96108b7565b1015905090565b6000600160009054906101000a900473ffffffffffffffffffffffffffffffffffffffff16905090565b6000610a14610ec8565b905090565b610a2d336008610f3c90919063ffffffff16565b565b610a383361084e565b1515610a4357600080fd5b610a57816008610fd690919063ffffffff16565b8073ffffffffffffffffffffffffffffffffffffffff167fa7555c95b69d4f5cc847881feb4ab2883a1921319e34fa2043747b793d65b36e60405160405180910390a250565b6000600760009054906101000a900460ff16905090565b6000600554905090565b60006002821415610ad357600d549050610afe565b6003821415610ae657600e549050610afe565b6004821415610af957600f549050610afe565b600090505b919050565b60008060009054906101000a900473ffffffffffffffffffffffffffffffffffffffff16905090565b610b368282611070565b600b60008373ffffffffffffffffffffffffffffffffffffffff1673ffffffffffffffffffffffffffffffffffffffff16815260200190815260200160002054610bc882600a60008673ffffffffffffffffffffffffffffffffffffffff1673ffffffffffffffffffffffffffffffffffffffff16815260200190815260200160002054610bfc90919063ffffffff16565b11151515610bd557600080fd5b5050565b6000610bf5610be6610ec8565b8361109190919063ffffffff16565b9050919050565b6000808284019050838110151515610c1357600080fd5b8091505092915050565b610c2782826110cf565b5050565b610c3582826111c3565b610c8781600a60008573ffffffffffffffffffffffffffffffffffffffff1673ffffffffffffffffffffffffffffffffffffffff16815260200190815260200160002054610bfc90919063ffffffff16565b600a60008473ffffffffffffffffffffffffffffffffffffffff1673ffffffffffffffffffffffffffffffffffffffff168152602001908152602001600020819055505050565b600160009054906101000a900473ffffffffffffffffffffffffffffffffffffffff1673ffffffffffffffffffffffffffffffffffffffff166108fc349081150290604051600060405180830381858888f19350505050158015610d36573d6000803e3d6000fd5b50565b5050565b60018160ff161415610d9457600954600b60008473ffffffffffffffffffffffffffffffffffffffff1673ffffffffffffffffffffffffffffffffffffffff16815260200190815260200160002081905550610dda565b6000600b60008473ffffffffffffffffffffffffffffffffffffffff1673ffffffffffffffffffffffffffffffffffffffff168152602001908152602001600020819055505b8173ffffffffffffffffffffffffffffffffffffffff167f7ed18aa59a2962897d3e7ed3da887dfb6a03cca6c3cfe8d74e55130f631791c882604051808260ff1660ff16815260200191505060405180910390a25050565b60008073ffffffffffffffffffffffffffffffffffffffff168273ffffffffffffffffffffffffffffffffffffffff1614151515610e6f57600080fd5b8260000160008373ffffffffffffffffffffffffffffffffffffffff1673ffffffffffffffffffffffffffffffffffffffff16815260200190815260200160002060009054906101000a900460ff16905092915050565b565b600042600d541115610eed5760056006600c5402811515610ee557fe5b049050610f39565b42600e541115610f1057600a600b600c5402811515610f0857fe5b049050610f39565b42600f541115610f335760146015600c5402811515610f2b57fe5b049050610f39565b600c5490505b90565b600073ffffffffffffffffffffffffffffffffffffffff168173ffffffffffffffffffffffffffffffffffffffff1614151515610f7857600080fd5b60008260000160008373ffffffffffffffffffffffffffffffffffffffff1673ffffffffffffffffffffffffffffffffffffffff16815260200190815260200160002060006101000a81548160ff0219169083151502179055505050565b600073ffffffffffffffffffffffffffffffffffffffff168173ffffffffffffffffffffffffffffffffffffffff161415151561101257600080fd5b60018260000160008373ffffffffffffffffffffffffffffffffffffffff1673ffffffffffffffffffffffffffffffffffffffff16815260200190815260200160002060006101000a81548160ff0219169083151502179055505050565b6110786108c1565b151561108357600080fd5b61108d82826111c7565b5050565b60008060008414156110a657600091506110c8565b82840290508284828115156110b757fe5b041415156110c457600080fd5b8091505b5092915050565b6110d7610b03565b73ffffffffffffffffffffffffffffffffffffffff166340c10f1983836040518363ffffffff167c0100000000000000000000000000000000000000000000000000000000028152600401808373ffffffffffffffffffffffffffffffffffffffff1673ffffffffffffffffffffffffffffffffffffffff16815260200182815260200192505050602060405180830381600087803b15801561117957600080fd5b505af115801561118d573d6000803e3d6000fd5b505050506040513d60208110156111a357600080fd5b810190808051906020019092919050505015156111bf57600080fd5b5050565b5050565b6111d182826111ff565b6004546111ee826111e06108b7565b610bfc90919063ffffffff16565b111515156111fb57600080fd5b5050565b600073ffffffffffffffffffffffffffffffffffffffff168273ffffffffffffffffffffffffffffffffffffffff161415151561123b57600080fd5b6000811415151561124b57600080fd5b50505600a165627a7a723058205b81d6100fda8b84af28dc015744ef775c028ded3dc08e597be70394debef9bf0029",
  "source": "pragma solidity ^0.4.24;\n\nimport \"./TieredPriceCrowdsale.sol\";\nimport \"./WhitelistedCrowdsale.sol\";\nimport \"openzeppelin-solidity/contracts/crowdsale/validation/CappedCrowdsale.sol\";\nimport \"openzeppelin-solidity/contracts/crowdsale/distribution/FinalizableCrowdsale.sol\";\nimport \"openzeppelin-solidity/contracts/crowdsale/emission/MintedCrowdsale.sol\";\n\ncontract PlazaCrowdsale is CappedCrowdsale, FinalizableCrowdsale, MintedCrowdsale, WhitelistedCrowdsale, TieredPriceCrowdsale {\n    constructor(\n        uint256 openingTime,\n        uint256 closingTime,\n        uint256 rate,\n        address wallet,\n        uint256 cap,\n        ERC20Mintable token,\n        uint256 openingTimeTier4, \n        uint256 openingTimeTier3, \n        uint256 openingTimeTier2,\n        uint256 invCap\n    )\n    public\n    Crowdsale(rate, wallet, token)\n    CappedCrowdsale(cap)\n    WhitelistedCrowdsale(invCap)\n    TimedCrowdsale(openingTime, closingTime)\n    TieredPriceCrowdsale(rate, openingTimeTier2, openingTimeTier3, openingTimeTier4)\n    {}\n\n}",
  "sourcePath": "/Users/kevinjohnson/Documents/GitHub/plaza-tge/contracts/PlazaCrowdsale.sol",
  "compiler": {
    "name": "solc",
    "version": "0.4.24+commit.e67f0147.Emscripten.clang"
  },
  "schemaVersion": "2.0.1",
  "updatedAt": "2018-10-03T12:42:16.126Z"
}