{
  "contractName": "PlazaCrowdsale",
  "abi": [
    {
      "constant": true,
      "inputs": [],
      "name": "hasClosed",
      "outputs": [
        {
          "name": "",
          "type": "bool"
        }
      ],
      "payable": false,
      "stateMutability": "view",
      "type": "function"
    },
    {
      "constant": true,
      "inputs": [],
      "name": "rate",
      "outputs": [
        {
          "name": "",
          "type": "uint256"
        }
      ],
      "payable": false,
      "stateMutability": "view",
      "type": "function"
    },
    {
      "constant": true,
      "inputs": [],
      "name": "cap",
      "outputs": [
        {
          "name": "",
          "type": "uint256"
        }
      ],
      "payable": false,
      "stateMutability": "view",
      "type": "function"
    },
    {
      "constant": true,
      "inputs": [],
      "name": "weiRaised",
      "outputs": [
        {
          "name": "",
          "type": "uint256"
        }
      ],
      "payable": false,
      "stateMutability": "view",
      "type": "function"
    },
    {
      "constant": true,
      "inputs": [],
      "name": "isOpen",
      "outputs": [
        {
          "name": "",
          "type": "bool"
        }
      ],
      "payable": false,
      "stateMutability": "view",
      "type": "function"
    },
    {
      "constant": true,
      "inputs": [],
      "name": "closingTime",
      "outputs": [
        {
          "name": "",
          "type": "uint256"
        }
      ],
      "payable": false,
      "stateMutability": "view",
      "type": "function"
    },
    {
      "constant": false,
      "inputs": [],
      "name": "finalize",
      "outputs": [],
      "payable": false,
      "stateMutability": "nonpayable",
      "type": "function"
    },
    {
      "constant": true,
      "inputs": [],
      "name": "capReached",
      "outputs": [
        {
          "name": "",
          "type": "bool"
        }
      ],
      "payable": false,
      "stateMutability": "view",
      "type": "function"
    },
    {
      "constant": true,
      "inputs": [],
      "name": "wallet",
      "outputs": [
        {
          "name": "",
          "type": "address"
        }
      ],
      "payable": false,
      "stateMutability": "view",
      "type": "function"
    },
    {
      "constant": true,
      "inputs": [],
      "name": "finalized",
      "outputs": [
        {
          "name": "",
          "type": "bool"
        }
      ],
      "payable": false,
      "stateMutability": "view",
      "type": "function"
    },
    {
      "constant": true,
      "inputs": [],
      "name": "openingTime",
      "outputs": [
        {
          "name": "",
          "type": "uint256"
        }
      ],
      "payable": false,
      "stateMutability": "view",
      "type": "function"
    },
    {
      "constant": false,
      "inputs": [
        {
          "name": "beneficiary",
          "type": "address"
        }
      ],
      "name": "buyTokens",
      "outputs": [],
      "payable": true,
      "stateMutability": "payable",
      "type": "function"
    },
    {
      "constant": true,
      "inputs": [],
      "name": "token",
      "outputs": [
        {
          "name": "",
          "type": "address"
        }
      ],
      "payable": false,
      "stateMutability": "view",
      "type": "function"
    },
    {
      "inputs": [
        {
          "name": "openingTime",
          "type": "uint256"
        },
        {
          "name": "closingTime",
          "type": "uint256"
        },
        {
          "name": "rate",
          "type": "uint256"
        },
        {
          "name": "wallet",
          "type": "address"
        },
        {
          "name": "cap",
          "type": "uint256"
        },
        {
          "name": "token",
          "type": "address"
        }
      ],
      "payable": false,
      "stateMutability": "nonpayable",
      "type": "constructor"
    },
    {
      "payable": true,
      "stateMutability": "payable",
      "type": "fallback"
    },
    {
      "anonymous": false,
      "inputs": [],
      "name": "CrowdsaleFinalized",
      "type": "event"
    },
    {
      "anonymous": false,
      "inputs": [
        {
          "indexed": true,
          "name": "purchaser",
          "type": "address"
        },
        {
          "indexed": true,
          "name": "beneficiary",
          "type": "address"
        },
        {
          "indexed": false,
          "name": "value",
          "type": "uint256"
        },
        {
          "indexed": false,
          "name": "amount",
          "type": "uint256"
        }
      ],
      "name": "TokensPurchased",
      "type": "event"
    }
  ],
  "bytecode": "0x60806040526000600760006101000a81548160ff02191690831515021790555034801561002b57600080fd5b5060405160c080610a3e83398101806040528101908080519060200190929190805190602001909291908051906020019092919080519060200190929190805190602001909291908051906020019092919050505085858386868560008311151561009557600080fd5b600073ffffffffffffffffffffffffffffffffffffffff168273ffffffffffffffffffffffffffffffffffffffff16141515156100d157600080fd5b600073ffffffffffffffffffffffffffffffffffffffff168173ffffffffffffffffffffffffffffffffffffffff161415151561010d57600080fd5b8260028190555081600160006101000a81548173ffffffffffffffffffffffffffffffffffffffff021916908373ffffffffffffffffffffffffffffffffffffffff160217905550806000806101000a81548173ffffffffffffffffffffffffffffffffffffffff021916908373ffffffffffffffffffffffffffffffffffffffff1602179055505050506000811115156101a757600080fd5b80600481905550504282101515156101be57600080fd5b8181101515156101cd57600080fd5b8160058190555080600681905550505050505050505061084c806101f26000396000f3006080604052600436106100c5576000357c0100000000000000000000000000000000000000000000000000000000900463ffffffff1680631515bc2b146100d05780632c4e722e146100ff578063355274ea1461012a5780634042b66f1461015557806347535d7b146101805780634b6753bc146101af5780634bb278f3146101da5780634f935945146101f1578063521eb27314610220578063b3f05b9714610277578063b7a8807c146102a6578063ec8ac4d8146102d1578063fc0c546a14610307575b6100ce3361035e565b005b3480156100dc57600080fd5b506100e561042c565b604051808215151515815260200191505060405180910390f35b34801561010b57600080fd5b50610114610438565b6040518082815260200191505060405180910390f35b34801561013657600080fd5b5061013f610442565b6040518082815260200191505060405180910390f35b34801561016157600080fd5b5061016a61044c565b6040518082815260200191505060405180910390f35b34801561018c57600080fd5b50610195610456565b604051808215151515815260200191505060405180910390f35b3480156101bb57600080fd5b506101c4610471565b6040518082815260200191505060405180910390f35b3480156101e657600080fd5b506101ef61047b565b005b3480156101fd57600080fd5b506102066104fb565b604051808215151515815260200191505060405180910390f35b34801561022c57600080fd5b5061023561050f565b604051808273ffffffffffffffffffffffffffffffffffffffff1673ffffffffffffffffffffffffffffffffffffffff16815260200191505060405180910390f35b34801561028357600080fd5b5061028c610539565b604051808215151515815260200191505060405180910390f35b3480156102b257600080fd5b506102bb610550565b6040518082815260200191505060405180910390f35b610305600480360381019080803573ffffffffffffffffffffffffffffffffffffffff16906020019092919050505061035e565b005b34801561031357600080fd5b5061031c61055a565b604051808273ffffffffffffffffffffffffffffffffffffffff1673ffffffffffffffffffffffffffffffffffffffff16815260200191505060405180910390f35b60008034915061036e8383610583565b610377826105a4565b905061038e826003546105c290919063ffffffff16565b60038190555061039e83826105e3565b8273ffffffffffffffffffffffffffffffffffffffff163373ffffffffffffffffffffffffffffffffffffffff167f6faf93231a456e552dbc9961f58d9713ee4f2e69d15f1975b050ef0911053a7b8484604051808381526020018281526020019250505060405180910390a361041583836105f1565b61041d6105f5565b6104278383610660565b505050565b60006006544211905090565b6000600254905090565b6000600454905090565b6000600354905090565b6000600554421015801561046c57506006544211155b905090565b6000600654905090565b600760009054906101000a900460ff1615151561049757600080fd5b61049f61042c565b15156104aa57600080fd5b6104b2610664565b7f9270cc390c096600a1c17c44345a1ba689fafd99d97487b10cfccf86cf73183660405160405180910390a16001600760006101000a81548160ff021916908315150217905550565b600060045461050861044c565b1015905090565b6000600160009054906101000a900473ffffffffffffffffffffffffffffffffffffffff16905090565b6000600760009054906101000a900460ff16905090565b6000600554905090565b60008060009054906101000a900473ffffffffffffffffffffffffffffffffffffffff16905090565b61058b610456565b151561059657600080fd5b6105a08282610666565b5050565b60006105bb6002548361069e90919063ffffffff16565b9050919050565b60008082840190508381101515156105d957600080fd5b8091505092915050565b6105ed82826106dc565b5050565b5050565b600160009054906101000a900473ffffffffffffffffffffffffffffffffffffffff1673ffffffffffffffffffffffffffffffffffffffff166108fc349081150290604051600060405180830381858888f1935050505015801561065d573d6000803e3d6000fd5b50565b5050565b565b61067082826107d0565b60045461068d8261067f61044c565b6105c290919063ffffffff16565b1115151561069a57600080fd5b5050565b60008060008414156106b357600091506106d5565b82840290508284828115156106c457fe5b041415156106d157600080fd5b8091505b5092915050565b6106e461055a565b73ffffffffffffffffffffffffffffffffffffffff166340c10f1983836040518363ffffffff167c0100000000000000000000000000000000000000000000000000000000028152600401808373ffffffffffffffffffffffffffffffffffffffff1673ffffffffffffffffffffffffffffffffffffffff16815260200182815260200192505050602060405180830381600087803b15801561078657600080fd5b505af115801561079a573d6000803e3d6000fd5b505050506040513d60208110156107b057600080fd5b810190808051906020019092919050505015156107cc57600080fd5b5050565b600073ffffffffffffffffffffffffffffffffffffffff168273ffffffffffffffffffffffffffffffffffffffff161415151561080c57600080fd5b6000811415151561081c57600080fd5b50505600a165627a7a7230582023682456ecd0d6c8bb1fba48a3d0907524544a0ea32b5542c3d7cd9aeda17c1e0029",
  "source": "pragma solidity ^0.4.24;\n\nimport \"openzeppelin-solidity/contracts/crowdsale/validation/CappedCrowdsale.sol\";\nimport \"openzeppelin-solidity/contracts/crowdsale/distribution/FinalizableCrowdsale.sol\";\nimport \"openzeppelin-solidity/contracts/crowdsale/emission/MintedCrowdsale.sol\";\n\ncontract PlazaCrowdsale is CappedCrowdsale, FinalizableCrowdsale, MintedCrowdsale {\n\n    constructor(\n        uint256 openingTime,\n        uint256 closingTime,\n        uint256 rate,\n        address wallet,\n        uint256 cap,\n        ERC20Mintable token\n    )\n    public\n    Crowdsale(rate, wallet, token)\n    CappedCrowdsale(cap)\n    TimedCrowdsale(openingTime, closingTime)\n    {}\n}",
  "sourcePath": "/Users/kevinjohnson/Documents/GitHub/plaza-tge/contracts/PlazaCrowdsale.sol",
  "compiler": {
    "name": "solc",
    "version": "0.4.24+commit.e67f0147.Emscripten.clang"
  },
  "schemaVersion": "2.0.1",
  "updatedAt": "2018-09-20T07:51:49.199Z"
}