{
  "contractName": "PlazaCrowdsale",
  "abi": [
    {
      "constant": true,
      "inputs": [],
      "name": "hasClosed",
      "outputs": [
        {
          "name": "",
          "type": "bool"
        }
      ],
      "payable": false,
      "stateMutability": "view",
      "type": "function"
    },
    {
      "constant": true,
      "inputs": [
        {
          "name": "beneficiary",
          "type": "address"
        }
      ],
      "name": "getContribution",
      "outputs": [
        {
          "name": "",
          "type": "uint256"
        }
      ],
      "payable": false,
      "stateMutability": "view",
      "type": "function"
    },
    {
      "constant": false,
      "inputs": [
        {
          "name": "_beneficiaries",
          "type": "address[]"
        }
      ],
      "name": "removeAddressesFromWhitelist",
      "outputs": [],
      "payable": false,
      "stateMutability": "nonpayable",
      "type": "function"
    },
    {
      "constant": false,
      "inputs": [
        {
          "name": "beneficiary",
          "type": "address"
        }
      ],
      "name": "removeAddressFromWhitelist",
      "outputs": [
        {
          "name": "",
          "type": "bool"
        }
      ],
      "payable": false,
      "stateMutability": "nonpayable",
      "type": "function"
    },
    {
      "constant": true,
      "inputs": [],
      "name": "rate",
      "outputs": [
        {
          "name": "",
          "type": "uint256"
        }
      ],
      "payable": false,
      "stateMutability": "view",
      "type": "function"
    },
    {
      "constant": true,
      "inputs": [],
      "name": "cap",
      "outputs": [
        {
          "name": "",
          "type": "uint256"
        }
      ],
      "payable": false,
      "stateMutability": "view",
      "type": "function"
    },
    {
      "constant": true,
      "inputs": [
        {
          "name": "account",
          "type": "address"
        }
      ],
      "name": "isCapper",
      "outputs": [
        {
          "name": "",
          "type": "bool"
        }
      ],
      "payable": false,
      "stateMutability": "view",
      "type": "function"
    },
    {
      "constant": true,
      "inputs": [
        {
          "name": "beneficiary",
          "type": "address"
        }
      ],
      "name": "isWhitelisted",
      "outputs": [
        {
          "name": "",
          "type": "bool"
        }
      ],
      "payable": false,
      "stateMutability": "view",
      "type": "function"
    },
    {
      "constant": true,
      "inputs": [],
      "name": "weiRaised",
      "outputs": [
        {
          "name": "",
          "type": "uint256"
        }
      ],
      "payable": false,
      "stateMutability": "view",
      "type": "function"
    },
    {
      "constant": true,
      "inputs": [],
      "name": "isOpen",
      "outputs": [
        {
          "name": "",
          "type": "bool"
        }
      ],
      "payable": false,
      "stateMutability": "view",
      "type": "function"
    },
    {
      "constant": true,
      "inputs": [],
      "name": "closingTime",
      "outputs": [
        {
          "name": "",
          "type": "uint256"
        }
      ],
      "payable": false,
      "stateMutability": "view",
      "type": "function"
    },
    {
      "constant": false,
      "inputs": [],
      "name": "finalize",
      "outputs": [],
      "payable": false,
      "stateMutability": "nonpayable",
      "type": "function"
    },
    {
      "constant": true,
      "inputs": [],
      "name": "capReached",
      "outputs": [
        {
          "name": "",
          "type": "bool"
        }
      ],
      "payable": false,
      "stateMutability": "view",
      "type": "function"
    },
    {
      "constant": true,
      "inputs": [],
      "name": "wallet",
      "outputs": [
        {
          "name": "",
          "type": "address"
        }
      ],
      "payable": false,
      "stateMutability": "view",
      "type": "function"
    },
    {
      "constant": true,
      "inputs": [],
      "name": "bonusRate",
      "outputs": [
        {
          "name": "",
          "type": "uint256"
        }
      ],
      "payable": false,
      "stateMutability": "view",
      "type": "function"
    },
    {
      "constant": false,
      "inputs": [],
      "name": "renounceCapper",
      "outputs": [],
      "payable": false,
      "stateMutability": "nonpayable",
      "type": "function"
    },
    {
      "constant": false,
      "inputs": [
        {
          "name": "beneficiary",
          "type": "address"
        }
      ],
      "name": "addAddressToWhitelist",
      "outputs": [
        {
          "name": "",
          "type": "bool"
        }
      ],
      "payable": false,
      "stateMutability": "nonpayable",
      "type": "function"
    },
    {
      "constant": false,
      "inputs": [
        {
          "name": "account",
          "type": "address"
        }
      ],
      "name": "addCapper",
      "outputs": [],
      "payable": false,
      "stateMutability": "nonpayable",
      "type": "function"
    },
    {
      "constant": true,
      "inputs": [],
      "name": "finalized",
      "outputs": [
        {
          "name": "",
          "type": "bool"
        }
      ],
      "payable": false,
      "stateMutability": "view",
      "type": "function"
    },
    {
      "constant": true,
      "inputs": [],
      "name": "openingTime",
      "outputs": [
        {
          "name": "",
          "type": "uint256"
        }
      ],
      "payable": false,
      "stateMutability": "view",
      "type": "function"
    },
    {
      "constant": true,
      "inputs": [
        {
          "name": "tier",
          "type": "uint256"
        }
      ],
      "name": "tierStartTime",
      "outputs": [
        {
          "name": "",
          "type": "uint256"
        }
      ],
      "payable": false,
      "stateMutability": "view",
      "type": "function"
    },
    {
      "constant": false,
      "inputs": [
        {
          "name": "_beneficiaries",
          "type": "address[]"
        }
      ],
      "name": "addAddressesToWhitelist",
      "outputs": [],
      "payable": false,
      "stateMutability": "nonpayable",
      "type": "function"
    },
    {
      "constant": false,
      "inputs": [
        {
          "name": "beneficiary",
          "type": "address"
        }
      ],
      "name": "buyTokens",
      "outputs": [],
      "payable": true,
      "stateMutability": "payable",
      "type": "function"
    },
    {
      "constant": true,
      "inputs": [],
      "name": "token",
      "outputs": [
        {
          "name": "",
          "type": "address"
        }
      ],
      "payable": false,
      "stateMutability": "view",
      "type": "function"
    },
    {
      "inputs": [
        {
          "name": "openingTime",
          "type": "uint256"
        },
        {
          "name": "closingTime",
          "type": "uint256"
        },
        {
          "name": "rate",
          "type": "uint256"
        },
        {
          "name": "wallet",
          "type": "address"
        },
        {
          "name": "cap",
          "type": "uint256"
        },
        {
          "name": "token",
          "type": "address"
        },
        {
          "name": "openingTimeTier4",
          "type": "uint256"
        },
        {
          "name": "openingTimeTier3",
          "type": "uint256"
        },
        {
          "name": "openingTimeTier2",
          "type": "uint256"
        },
        {
          "name": "invCap",
          "type": "uint256"
        }
      ],
      "payable": false,
      "stateMutability": "nonpayable",
      "type": "constructor"
    },
    {
      "payable": true,
      "stateMutability": "payable",
      "type": "fallback"
    },
    {
      "anonymous": false,
      "inputs": [
        {
          "indexed": true,
          "name": "account",
          "type": "address"
        }
      ],
      "name": "CapperAdded",
      "type": "event"
    },
    {
      "anonymous": false,
      "inputs": [
        {
          "indexed": true,
          "name": "account",
          "type": "address"
        }
      ],
      "name": "CapperRemoved",
      "type": "event"
    },
    {
      "anonymous": false,
      "inputs": [],
      "name": "CrowdsaleFinalized",
      "type": "event"
    },
    {
      "anonymous": false,
      "inputs": [
        {
          "indexed": true,
          "name": "purchaser",
          "type": "address"
        },
        {
          "indexed": true,
          "name": "beneficiary",
          "type": "address"
        },
        {
          "indexed": false,
          "name": "value",
          "type": "uint256"
        },
        {
          "indexed": false,
          "name": "amount",
          "type": "uint256"
        }
      ],
      "name": "TokensPurchased",
      "type": "event"
    }
  ],
  "bytecode": "0x60806040526000600760006101000a81548160ff0219169083151502179055503480156200002c57600080fd5b50604051610140806200166f8339810180604052810190808051906020019092919080519060200190929190805190602001909291908051906020019092919080519060200190929190805190602001909291908051906020019092919080519060200190929190805190602001909291908051906020019092919050505087828486848e8e8c8f8f8e600083111515620000c657600080fd5b600073ffffffffffffffffffffffffffffffffffffffff168273ffffffffffffffffffffffffffffffffffffffff16141515156200010357600080fd5b600073ffffffffffffffffffffffffffffffffffffffff168173ffffffffffffffffffffffffffffffffffffffff16141515156200014057600080fd5b8260028190555081600160006101000a81548173ffffffffffffffffffffffffffffffffffffffff021916908373ffffffffffffffffffffffffffffffffffffffff160217905550806000806101000a81548173ffffffffffffffffffffffffffffffffffffffff021916908373ffffffffffffffffffffffffffffffffffffffff160217905550505050600081111515620001db57600080fd5b8060048190555050428210151515620001f357600080fd5b8181101515156200020357600080fd5b8160058190555080600681905550505062000237336008620002be6401000000000262001061179091906401000000009004565b6000811115156200024757600080fd5b80600981905550506000841115156200025f57600080fd5b42831115156200026e57600080fd5b8282101515156200027e57600080fd5b8181101515156200028e57600080fd5b83600c8190555080600f8190555081600e8190555082600d81905550505050505050505050505050505062000359565b600073ffffffffffffffffffffffffffffffffffffffff168173ffffffffffffffffffffffffffffffffffffffff1614151515620002fb57600080fd5b60018260000160008373ffffffffffffffffffffffffffffffffffffffff1673ffffffffffffffffffffffffffffffffffffffff16815260200190815260200160002060006101000a81548160ff0219169083151502179055505050565b61130680620003696000396000f30060806040526004361061013e576000357c0100000000000000000000000000000000000000000000000000000000900463ffffffff1680631515bc2b1461014957806321eff7fc1461017857806324953eaa146101cf578063286dd3f51461020a5780632c4e722e14610265578063355274ea1461029057806339564561146102bb5780633af32abf146103165780634042b66f1461037157806347535d7b1461039c5780634b6753bc146103cb5780634bb278f3146103f65780634f9359451461040d578063521eb2731461043c5780635af123f4146104935780635d5576f8146104be5780637b9417c8146104d55780638dfbcf3614610530578063b3f05b9714610573578063b7a8807c146105a2578063bef7c258146105cd578063e2ec6ec31461060e578063ec8ac4d814610649578063fc0c546a1461067f575b610147336106d6565b005b34801561015557600080fd5b5061015e6107a4565b604051808215151515815260200191505060405180910390f35b34801561018457600080fd5b506101b9600480360381019080803573ffffffffffffffffffffffffffffffffffffffff1690602001909291905050506107b0565b6040518082815260200191505060405180910390f35b3480156101db57600080fd5b506102086004803603810190808035906020019082018035906020019190919293919293905050506107f9565b005b34801561021657600080fd5b5061024b600480360381019080803573ffffffffffffffffffffffffffffffffffffffff169060200190929190505050610865565b604051808215151515815260200191505060405180910390f35b34801561027157600080fd5b5061027a61090c565b6040518082815260200191505060405180910390f35b34801561029c57600080fd5b506102a5610916565b6040518082815260200191505060405180910390f35b3480156102c757600080fd5b506102fc600480360381019080803573ffffffffffffffffffffffffffffffffffffffff169060200190929190505050610920565b604051808215151515815260200191505060405180910390f35b34801561032257600080fd5b50610357600480360381019080803573ffffffffffffffffffffffffffffffffffffffff16906020019092919050505061093d565b604051808215151515815260200191505060405180910390f35b34801561037d57600080fd5b50610386610989565b6040518082815260200191505060405180910390f35b3480156103a857600080fd5b506103b1610993565b604051808215151515815260200191505060405180910390f35b3480156103d757600080fd5b506103e06109ae565b6040518082815260200191505060405180910390f35b34801561040257600080fd5b5061040b6109b8565b005b34801561041957600080fd5b50610422610a38565b604051808215151515815260200191505060405180910390f35b34801561044857600080fd5b50610451610a4c565b604051808273ffffffffffffffffffffffffffffffffffffffff1673ffffffffffffffffffffffffffffffffffffffff16815260200191505060405180910390f35b34801561049f57600080fd5b506104a8610a76565b6040518082815260200191505060405180910390f35b3480156104ca57600080fd5b506104d3610a85565b005b3480156104e157600080fd5b50610516600480360381019080803573ffffffffffffffffffffffffffffffffffffffff169060200190929190505050610a9b565b604051808215151515815260200191505060405180910390f35b34801561053c57600080fd5b50610571600480360381019080803573ffffffffffffffffffffffffffffffffffffffff169060200190929190505050610b43565b005b34801561057f57600080fd5b50610588610bb1565b604051808215151515815260200191505060405180910390f35b3480156105ae57600080fd5b506105b7610bc8565b6040518082815260200191505060405180910390f35b3480156105d957600080fd5b506105f860048036038101908080359060200190929190505050610bd2565b6040518082815260200191505060405180910390f35b34801561061a57600080fd5b50610647600480360381019080803590602001908201803590602001919091929391929390505050610c17565b005b61067d600480360381019080803573ffffffffffffffffffffffffffffffffffffffff1690602001909291905050506106d6565b005b34801561068b57600080fd5b50610694610c83565b604051808273ffffffffffffffffffffffffffffffffffffffff1673ffffffffffffffffffffffffffffffffffffffff16815260200191505060405180910390f35b6000803491506106e68383610cac565b6106ef82610d59565b905061070682600354610d7c90919063ffffffff16565b6003819055506107168382610d9d565b8273ffffffffffffffffffffffffffffffffffffffff163373ffffffffffffffffffffffffffffffffffffffff167f6faf93231a456e552dbc9961f58d9713ee4f2e69d15f1975b050ef0911053a7b8484604051808381526020018281526020019250505060405180910390a361078d8383610dab565b610795610e4e565b61079f8383610eb9565b505050565b60006006544211905090565b6000600a60008373ffffffffffffffffffffffffffffffffffffffff1673ffffffffffffffffffffffffffffffffffffffff168152602001908152602001600020549050919050565b600061080433610920565b151561080f57600080fd5b600090505b8282905081101561086057610852838383818110151561083057fe5b9050602002013573ffffffffffffffffffffffffffffffffffffffff16610865565b508080600101915050610814565b505050565b600061087033610920565b151561087b57600080fd5b600073ffffffffffffffffffffffffffffffffffffffff168273ffffffffffffffffffffffffffffffffffffffff16141515156108b757600080fd5b6000600b60008473ffffffffffffffffffffffffffffffffffffffff1673ffffffffffffffffffffffffffffffffffffffff168152602001908152602001600020819055506109058261093d565b9050919050565b6000600254905090565b6000600454905090565b6000610936826008610ebd90919063ffffffff16565b9050919050565b600080600b60008473ffffffffffffffffffffffffffffffffffffffff1673ffffffffffffffffffffffffffffffffffffffff1681526020019081526020016000205414159050919050565b6000600354905090565b600060055442101580156109a957506006544211155b905090565b6000600654905090565b600760009054906101000a900460ff161515156109d457600080fd5b6109dc6107a4565b15156109e757600080fd5b6109ef610f51565b7f9270cc390c096600a1c17c44345a1ba689fafd99d97487b10cfccf86cf73183660405160405180910390a16001600760006101000a81548160ff021916908315150217905550565b6000600454610a45610989565b1015905090565b6000600160009054906101000a900473ffffffffffffffffffffffffffffffffffffffff16905090565b6000610a80610f53565b905090565b610a99336008610fc790919063ffffffff16565b565b6000610aa633610920565b1515610ab157600080fd5b600073ffffffffffffffffffffffffffffffffffffffff168273ffffffffffffffffffffffffffffffffffffffff1614151515610aed57600080fd5b600954600b60008473ffffffffffffffffffffffffffffffffffffffff1673ffffffffffffffffffffffffffffffffffffffff16815260200190815260200160002081905550610b3c8261093d565b9050919050565b610b4c33610920565b1515610b5757600080fd5b610b6b81600861106190919063ffffffff16565b8073ffffffffffffffffffffffffffffffffffffffff167fa7555c95b69d4f5cc847881feb4ab2883a1921319e34fa2043747b793d65b36e60405160405180910390a250565b6000600760009054906101000a900460ff16905090565b6000600554905090565b60006002821415610be757600d549050610c12565b6003821415610bfa57600e549050610c12565b6004821415610c0d57600f549050610c12565b600090505b919050565b6000610c2233610920565b1515610c2d57600080fd5b600090505b82829050811015610c7e57610c708383838181101515610c4e57fe5b9050602002013573ffffffffffffffffffffffffffffffffffffffff16610a9b565b508080600101915050610c32565b505050565b60008060009054906101000a900473ffffffffffffffffffffffffffffffffffffffff16905090565b610cb682826110fb565b600b60008373ffffffffffffffffffffffffffffffffffffffff1673ffffffffffffffffffffffffffffffffffffffff16815260200190815260200160002054610d4882600a60008673ffffffffffffffffffffffffffffffffffffffff1673ffffffffffffffffffffffffffffffffffffffff16815260200190815260200160002054610d7c90919063ffffffff16565b11151515610d5557600080fd5b5050565b6000610d75610d66610f53565b8361111c90919063ffffffff16565b9050919050565b6000808284019050838110151515610d9357600080fd5b8091505092915050565b610da7828261115a565b5050565b610db5828261124e565b610e0781600a60008573ffffffffffffffffffffffffffffffffffffffff1673ffffffffffffffffffffffffffffffffffffffff16815260200190815260200160002054610d7c90919063ffffffff16565b600a60008473ffffffffffffffffffffffffffffffffffffffff1673ffffffffffffffffffffffffffffffffffffffff168152602001908152602001600020819055505050565b600160009054906101000a900473ffffffffffffffffffffffffffffffffffffffff1673ffffffffffffffffffffffffffffffffffffffff166108fc349081150290604051600060405180830381858888f19350505050158015610eb6573d6000803e3d6000fd5b50565b5050565b60008073ffffffffffffffffffffffffffffffffffffffff168273ffffffffffffffffffffffffffffffffffffffff1614151515610efa57600080fd5b8260000160008373ffffffffffffffffffffffffffffffffffffffff1673ffffffffffffffffffffffffffffffffffffffff16815260200190815260200160002060009054906101000a900460ff16905092915050565b565b600042600d541115610f785760056006600c5402811515610f7057fe5b049050610fc4565b42600e541115610f9b57600a600b600c5402811515610f9357fe5b049050610fc4565b42600f541115610fbe5760146015600c5402811515610fb657fe5b049050610fc4565b600c5490505b90565b600073ffffffffffffffffffffffffffffffffffffffff168173ffffffffffffffffffffffffffffffffffffffff161415151561100357600080fd5b60008260000160008373ffffffffffffffffffffffffffffffffffffffff1673ffffffffffffffffffffffffffffffffffffffff16815260200190815260200160002060006101000a81548160ff0219169083151502179055505050565b600073ffffffffffffffffffffffffffffffffffffffff168173ffffffffffffffffffffffffffffffffffffffff161415151561109d57600080fd5b60018260000160008373ffffffffffffffffffffffffffffffffffffffff1673ffffffffffffffffffffffffffffffffffffffff16815260200190815260200160002060006101000a81548160ff0219169083151502179055505050565b611103610993565b151561110e57600080fd5b6111188282611252565b5050565b60008060008414156111315760009150611153565b828402905082848281151561114257fe5b0414151561114f57600080fd5b8091505b5092915050565b611162610c83565b73ffffffffffffffffffffffffffffffffffffffff166340c10f1983836040518363ffffffff167c0100000000000000000000000000000000000000000000000000000000028152600401808373ffffffffffffffffffffffffffffffffffffffff1673ffffffffffffffffffffffffffffffffffffffff16815260200182815260200192505050602060405180830381600087803b15801561120457600080fd5b505af1158015611218573d6000803e3d6000fd5b505050506040513d602081101561122e57600080fd5b8101908080519060200190929190505050151561124a57600080fd5b5050565b5050565b61125c828261128a565b6004546112798261126b610989565b610d7c90919063ffffffff16565b1115151561128657600080fd5b5050565b600073ffffffffffffffffffffffffffffffffffffffff168273ffffffffffffffffffffffffffffffffffffffff16141515156112c657600080fd5b600081141515156112d657600080fd5b50505600a165627a7a723058205e6691bef9ee12269091fcb8755d6b2706ab48e521c6eec50b006fd0c0ef194d0029",
  "source": "pragma solidity ^0.4.24;\n\nimport \"./TieredPriceCrowdsale.sol\";\nimport \"./WhitelistedCrowdsale.sol\";\nimport \"openzeppelin-solidity/contracts/crowdsale/validation/CappedCrowdsale.sol\";\nimport \"openzeppelin-solidity/contracts/crowdsale/distribution/FinalizableCrowdsale.sol\";\nimport \"openzeppelin-solidity/contracts/crowdsale/emission/MintedCrowdsale.sol\";\n\ncontract PlazaCrowdsale is CappedCrowdsale, FinalizableCrowdsale, MintedCrowdsale, WhitelistedCrowdsale, TieredPriceCrowdsale {\n    constructor(\n        uint256 openingTime,\n        uint256 closingTime,\n        uint256 rate,\n        address wallet,\n        uint256 cap,\n        ERC20Mintable token,\n        uint256 openingTimeTier4, \n        uint256 openingTimeTier3, \n        uint256 openingTimeTier2,\n        uint256 invCap\n    )\n    public\n    Crowdsale(rate, wallet, token)\n    CappedCrowdsale(cap)\n    WhitelistedCrowdsale(invCap)\n    TimedCrowdsale(openingTime, closingTime)\n    TieredPriceCrowdsale(rate, openingTimeTier2, openingTimeTier3, openingTimeTier4)\n    {}\n\n}",
  "sourcePath": "/Users/kevinjohnson/Documents/GitHub/plaza-tge/contracts/PlazaCrowdsale.sol",
  "compiler": {
    "name": "solc",
    "version": "0.4.24+commit.e67f0147.Emscripten.clang"
  },
  "schemaVersion": "2.0.1",
  "updatedAt": "2018-10-01T04:34:39.997Z"
}